:020000040800F2
:100000000080012051290008892800088F28000855
:10001000952800089B280008A1280008000000007F
:10002000000000000000000000000000A7280008F9
:10003000B528000800000000C3280008D1280008E7
:10004000A1290008A1290008A1290008A129000868
:10005000A1290008A1290008A1290008A129000858
:10006000A1290008A1290008A1290008A129000848
:10007000A1290008A1290008A1290008A129000838
:10008000A1290008A1290008A129000800000000FA
:10009000000000000000000000000000A12900088E
:1000A000A1290008DD280008A1290008A1290008CD
:1000B000A1290008A1290008A1290008A1290008F8
:1000C000A1290008A1290008A1290008A1290008E8
:1000D000A1290008A1290008A129000800000000AA
:1000E000F1280008A1290008A1290008000000004B
:1000F000000000000000000000000000A12900082E
:1001000000000000A1290008A1290008A129000879
:1001100000000000000000000000000000000000DF
:10012000A1290008A1290008A1290008A129000887
:10013000A1290008000000000000000000000000ED
:10014000000000000000000000000000A1290008DD
:10015000A1290008A1290008A129000819290008DF
:10016000A1290008A12900080000000000000000EB
:10017000000000000000000000000000000000007F
:1001800000000000A129000800000000000000009D
:04019000A129000899
:1001940010B5054C237833B9044B13B10448AFF3BD
:1001A40000800123237010BD5C00002000000000CB
:1001B400E854000808B5034B1BB103490348AFF3E7
:1001C400008008BD0000000060000020E854000822
:1001D40010F8012B11F8013B012A28BF9A42F7D0ED
:1001E400D01A704753B94AB9002908BF00281CBF68
:1001F4004FF0FF314FF0FF3000F06EB9ADF1080C55
:100204006DE904CE00F006F8DDF804E0DDE9022330
:1002140004B070472DE9F047089D04468C46002B36
:1002240040F083808A42174647D9B2FA82F242B13B
:10023400C2F1200024FA00F09140974040EA010CFA
:1002440094404FEA1748230CBCFBF8F61FFA87FECC
:1002540008FB16C143EA014306FB0EF1994209D992
:10026400FB1806F1FF3080F01981994240F21681A3
:10027400023E3B445B1AA4B2B3FBF8F008FB103314
:1002840044EA034400FB0EFEA64509D93C1900F1DB
:10029400FF3380F00581A64540F2028102383C44D8
:1002A40040EA0640A4EB0E0400261DB1D44000230E
:1002B400C5E900433146BDE8F08702B9FFDEB2FA72
:1002C40082F2002A50D1CB1B4FEA174E1FFA87F84F
:1002D4000126B3FBFEFC210C0EFB1C3341EA034157
:1002E40008FB0CF38B4207D979180CF1FF3002D2CA
:1002F4008B4200F2E9808446C91AA3B2B1FBFEF036
:100304000EFB101143EA014408FB00F8A04507D98D
:100314003C1900F1FF3302D2A04500F2D9801846FF
:10032400A4EB080440EA0C40BFE78B4209D9002D36
:1003340000F0B1800026C5E9000130463146BDE831
:10034400F087B3FA83F6002E4AD18B4202D382425D
:1003540000F2B880841A61EB030101208C46002D61
:10036400A8D0C5E9004CA5E7C2F1200320FA03F6A2
:10037400974001FA02F04FEA174ED9403043030C7C
:10038400B1FBFEF61FFA87F80EFB161143EA014390
:1003940006FB08F1994204FA02F409D9FB1806F1A4
:1003A400FF3C80F08D80994240F28A80023E3B44BB
:1003B4005B1A81B2B3FBFEF00EFB103341EA03413A
:1003C40000FB08F38B4207D9791800F1FF3C73D284
:1003D4008B4271D902383944CB1A40EA064678E791
:1003E400C6F1200C03FA06F422FA0CF31C4320FA9B
:1003F4000CF701FA06F34FEA144E21FA0CF11F43ED
:100404003B0CB1FBFEF91FFA84F80EFB191143EA09
:10041400014109FB08FA8A4502FA06F200FA06F3DA
:1004240008D9611809F1FF3048D28A4546D9A9F1A3
:1004340002092144A1EB0A01BFB2B1FBFEF00EFB9D
:10044400101147EA014700FB08F8B84507D9E71936
:1004540000F1FF312ED2B8452CD90238274440EAA6
:100464000940A7EB0807A0FB02894F45C646494649
:100474001AD317D05DB1B3EB0E0267EB010707FA8D
:100484000CFCF2404CEA0202F740C5E900270026C2
:100494003146BDE8F0872E4628460BE70646E9E6D6
:1004A4001846FDE64345E5D2B8EB020E69EB0401BC
:1004B4000138DFE70846D2E760468DE78146B9E7B1
:1004C400664675E730464AE7ACF1020C394413E757
:1004D40002383C4424E700BF704700BF80B500AF3A
:1004E40002F05EFA01F00AF801F008F901F0B2F83E
:1004F40001F0DAF801F062F80322BB49BB4804F0CA
:10050400DCF8642002F0BEFA4FF47A730122B84991
:10051400B64804F040F84FF47A730122B549B34861
:1005240004F039F8642002F0ADFA4FF47A7314221F
:10053400B149AE4804F02FF84FF47A730122AC4964
:10054400AA4804F028F84FF47A730122AB49A7486B
:1005540004F021F8642002F095FA4FF47A7314221F
:10056400A749A24804F017F84FF47A730122A0496E
:100574009E4804F010F84FF47A730122A1499B4875
:1005840004F009F8642002F07DFA4FF47A7314221F
:100594009D49964803F0FFFF9C4803F019FB4FF474
:1005A40080719B4802F0ECFD0346002B40F04A8129
:1005B400984B1B78002B00F04581914B2122DA7077
:1005C4004FF47A7301228A49884803F0E4FF4FF418
:1005D4007A7301228949854803F0DDFF4FF47A7369
:1005E40014228749814803F0D6FF8B4B00221A70EE
:1005F4008A4B01221A7000224FF40061844802F0F1
:10060400D7FDC4E001224FF48061814802F0D0FD9F
:1006140004217F4802F0E5FD4FF400717C4802F0AC
:10062400AFFD0346002B10D17D4B1B78002B0CD063
:10063400002210217B4802F0BBFD012240217948B1
:1006440002F0B6FD6E4B21221A720421754802F0A5
:1006540097FD0346002B11D1734B1B78002B0DD053
:1006640000224FF480716F4802F0A2FD0122802124
:100674006C4802F09DFD624B21225A7302216948A5
:1006840002F07EFD0346002B10D1684B1B78002B33
:100694000CD0002201215E4802F08AFD01220421CF
:1006A4005B4802F085FD564B21229A740821584874
:1006B40002F066FD0346002B11D15D4B1B78002B25
:1006C4000DD0002202215B4802F072FD01224FF49A
:1006D4000071584802F06CFD4B4B2122DA70102156
:1006E400544802F04DFD0346002B11D1524B1B78A8
:1006F400002B0DD0002280214E4802F059FD01222A
:100704004FF480714B4802F053FD3F4B21221A7283
:100714004FF47A7301223649344803F03CFF4FF416
:100724007A7301223549314803F035FF4FF47A7367
:10073400142233492D4803F02EFF642002F0A2F95D
:100744004FF47A7301222A49284803F024FF4FF416
:100754007A7301222B49254803F01DFF4FF47A7365
:1007640014222949214803F016FF642002F08AF973
:10077400324B1A78324B1B789A4208D3274B1B789A
:10078400002B04D001220121264802F011FD234B45
:100794001B78002B7FF436AF00224FF480611C4895
:1007A40002F006FD002240211E4802F001FD002255
:1007B40080211C4802F0FCFC00220421144802F0B1
:1007C400F7FC00224FF400711A4802F0F1FC0022F9
:1007D4004FF48071174802F0EBFC002204210C480E
:1007E40002F0E6FC00F066BE68010020E000002094
:1007F400000000200100002004000020020000206E
:1008040018000020030000202C0000209800002085
:10081400000802407B0000208200002083000020AA
:100824007C000020000402407D0000207E000020A7
:100834007F0000200000024080000020790000209A
:100844007A0000204FF40071A24802F099FC03469C
:10085400002B40F00D81A04B1B78002B00F0088189
:100864009E4B21221A724FF47A7301229C499D48AF
:1008740003F091FE4FF47A7301229B49994803F0E7
:100884008AFE4FF47A7314229449964803F083FE47
:10089400964B00221A70964B01221A7000221021E6
:1008A400944802F085FCB6E004218A4802F099FCE1
:1008B400012240218F4802F07BFC4FF4807185486F
:1008C40002F05EFC0346002B0FD18B4B1B78002BF0
:1008D4000BD000224FF400617E4802F069FC012233
:1008E4004FF480617B4802F063FC0421814802F0EC
:1008F40047FC0346002B0ED1804B1B78002B0AD0FB
:1009040000224FF480717B4802F052FC01228021C6
:10091400784802F04DFC0221764802F031FC03468F
:10092400002B0DD1764B1B78002B09D0002201211E
:10093400684802F03DFC01220421664802F038FCBC
:100944000821644802F01CFC0346002B0ED16D4BB9
:100954001B78002B0AD0002202216B4802F028FCED
:1009640001224FF40071684802F022FC102166480D
:1009740002F006FC0346002B0ED1644B1B78002BBF
:100984000AD000228021604802F012FC01224FF4B8
:1009940080715D4802F00CFC4FF47A7301225049D7
:1009A400504803F0F8FD4FF47A7301224E494D4844
:1009B40003F0F1FD4FF47A7314224849494803F0D7
:1009C400EAFD642002F05EF84FF47A730122444990
:1009D400444803F0E0FD4FF47A7301224C49414846
:1009E40003F0D9FD4FF47A7314224A493D4803F0C9
:1009F400D2FD642002F046F8474B1A78474B1B7827
:100A04009A4208D33A4B1B78002B04D001220121CF
:100A1400384802F0CDFB364B1B78002B7FF444AFF3
:100A240000224FF480612B4802F0C2FB00224021D7
:100A3400304802F0BDFB002280212E4802F0B8FBB2
:100A440000220421234802F0B3FB00224FF400717A
:100A54002D4802F0ADFB00224FF480712A4802F0C9
:100A6400A7FB002204211B4802F0A2FB00F022BDD8
:100A74000421204802F084FB0346002B40F042810D
:100A84001E4B1B78002B00F03D81144B21225A731E
:100A94004FF47A7301221249124803F07CFD4FF49B
:100AA4007A73012210490F4803F075FD4FF47A73ED
:100AB40014220A490B4803F06EFD0C4B00221A70F5
:100AC4000B4B01221A7000224FF48071094802F086
:100AD4006FFBEBE0000802407C00002018000020BF
:100AE40000000020E000002002000020820000201E
:100AF40083000020000402407B0000207D000020D1
:100B04007E0000207F0000200000024080000020C2
:100B1400030000202C000020790000207A0000202F
:100B24000421914802F05DFB012280218F4802F0EC
:100B34003FFB4FF400718C4802F022FB0346002B6C
:100B440010D18B4B1B78002B0CD00022102187482E
:100B540002F02EFB01224021844802F029FB854B40
:100B640021221A724FF480717F4802F009FB034678
:100B7400002B12D1804B1B78002B0ED000224FF497
:100B84000061794802F014FB01224FF48061764839
:100B940002F00EFB774B2122DA700221734802F037
:100BA400EFFA0346002B10D1744B1B78002B0CD0AA
:100BB400002201216C4802F0FBFA012204216A4858
:100BC40002F0F6FA6B4B21229A740821664802F06F
:100BD400D7FA0346002B11D1694B1B78002B0DD09B
:100BE40000220221674802F0E3FA01224FF4007167
:100BF400644802F0DDFA644B2122DA701021614866
:100C040002F0BEFA0346002B11D1604B1B78002B77
:100C14000DD0002280215B4802F0CAFA01224FF471
:100C24008071584802F0C4FA574B21221A724FF4CB
:100C34007A7301225649574803F0ADFC4FF47A7396
:100C440001225549534803F0A6FC4FF47A73142249
:100C54004849504803F09FFC642001F013FF4FF40F
:100C64007A7301224A494B4803F095FC4FF47A7396
:100C740001224A49474803F08EFC4FF47A73142248
:100C84004149444803F087FC642001F0FBFE444BD7
:100C94001A78444B1B789A4208D3434B1B78002B99
:100CA40004D001220121314802F082FA3E4B1B7824
:100CB400002B7FF435AF00224FF480612A4802F004
:100CC40077FA00224021294802F072FA002280219A
:100CD400264802F06DFA00220421234802F068FA43
:100CE40000224FF40071274802F062FA00224FF408
:100CF4008071244802F05CFA002204211A4802F0B0
:100D040057FAD7E30221194802F03AFA0346002BB6
:100D140040F04181194B1B78002B00F03C81154BAE
:100D240021229A744FF47A7301221949194803F065
:100D340032FC4FF47A7301221749164803F02BFC56
:100D44004FF47A7314220B49124803F024FC174B16
:100D540000221A70144B01221A7000220121024849
:100D640002F026FAEBE000BF000802400004024053
:100D74007C000020180000207B0000207E00002062
:100D84007F000020000002402C0000208000002092
:100D940000000020E00000200200002003000020EA
:100DA400790000207A0000208300002082000020C7
:100DB4000421914802F015FA012204218E4802F020
:100DC400F7F94FF400718C4802F0DAF90346002B6E
:100DD40010D18A4B1B78002B0CD00022102188489C
:100DE40002F0E6F901224021854802F0E1F9854B41
:100DF40021221A720421824802F0C2F90346002B10
:100E040011D1814B1B78002B0DD000224FF480713F
:100E14007B4802F0CDF901228021794802F0C8F91B
:100E2400784B21225A734FF48071734802F0A8F969
:100E34000346002B12D1754B1B78002B0ED00022D9
:100E44004FF400616C4802F0B3F901224FF4806161
:100E5400694802F0ADF96B4B2122DA70082166482B
:100E640002F08EF90346002B11D1694B1B78002B3D
:100E74000DD000220221674802F09AF901224FF4B2
:100E84000071644802F094F9634B2122DA70102156
:100E9400604802F075F90346002B11D15F4B1B78B3
:100EA400002B0DD0002280215A4802F081F9012242
:100EB4004FF48071574802F07BF9574B21221A7284
:100EC4004FF47A7301225649564803F064FB4FF4F9
:100ED4007A7301225449534803F05DFB4FF47A734B
:100EE400142248494F4803F056FB642001F0CAFD20
:100EF4004FF47A7301224A494A4803F04CFB4FF4F9
:100F04007A7301224949474803F045FB4FF47A7349
:100F140014224149434803F03EFB642001F0B2FD32
:100F2400434B1A78434B1B789A4208D3424B1B78A5
:100F3400002B04D001220121314802F039F93E4B43
:100F44001B78002B7FF434AF00224FF480612A48D1
:100F540002F02EF900224021294802F029F900224A
:100F64008021274802F024F900220421224802F0BB
:100F74001FF900224FF40071264802F019F90022EB
:100F84004FF48071234802F013F9002204211A4817
:100F940002F00EF98EE20821174802F0F1F8034638
:100FA400002B40F040811A4B1B78002B00F03B8152
:100FB400194B2122DA704FF47A7301221849194827
:100FC40003F0E9FA4FF47A7301221849154803F043
:100FD400E2FA4FF47A7314220F49124803F0DBFA51
:100FE400164B00221A70144B01221A70002202219F
:100FF400084802F0DDF8EAE0000802407C00002026
:1010040000040240180000207D0000207B00002026
:101014007F000020000002402C00002080000020FF
:1010240000000020E0000020020000200300002057
:10103400790000207A000020830000208200002034
:101044000421914802F0CDF801224FF400718F4839
:1010540002F0AEF84FF400718B4802F091F80346A9
:10106400002B10D18A4B1B78002B0CD000221021AE
:10107400884802F09DF801224021864802F098F841
:10108400854B21221A720421824802F079F8034622
:10109400002B11D1814B1B78002B0DD000224FF473
:1010A40080717C4802F084F801228021794802F0A2
:1010B4007FF8794B21225A730221764802F060F8B6
:1010C4000346002B10D1764B1B78002B0CD000224A
:1010D40001216D4802F06CF8012204216A4802F0F3
:1010E40067F86D4B21229A744FF48071664802F0C0
:1010F40047F80346002B12D16A4B1B78002B0ED005
:1011040000224FF40061604802F052F801224FF4CB
:1011140080615D4802F04CF85F4B2122DA701021A7
:101124005A4802F02DF80346002B11D15E4B1B7870
:10113400002B0DD000228021544802F039F80122FE
:101144004FF48071514802F033F8584B21221A723F
:101154004FF47A7301225649564803F01CFA4FF4AF
:101164007A7301225449534803F015FA4FF47A7301
:10117400142249494F4803F00EFA642001F082FC1E
:101184004FF47A7301224A494A4803F004FA4FF4AF
:101194007A7301224949474803F0FDF94FF47A7301
:1011A40014224249434803F0F6F9642001F06AFC32
:1011B400434B1A78434B1B789A4208D3424B1B7813
:1011C400002B04D001220121324801F0F1FF3E4BF3
:1011D4001B78002B7FF434AF00224FF480612A483F
:1011E40001F0E6FF002240212A4801F0E1FF00223D
:1011F4008021284801F0DCFF00220421224801F06C
:10120400D7FF00224FF40071204801F0D1FF0022E3
:101214004FF480711D4801F0CBFF002204211A48CD
:1012240001F0C6FF46E11021184801F0A9FF03466A
:10123400002B7FF4B4A91C4B1B78002B3FF4AFA9FF
:101244001A4B21221A724FF47A7301221849194851
:1012540003F0A1F94FF47A7301221849154803F0F9
:101264009AF94FF47A7314221049124803F093F94F
:10127400164B00221A70144B01221A70002280218E
:10128400024801F095FFEAE0000802400000024035
:101294007C00002000040240180000207D00002093
:1012A4007E0000207B000020800000202C00002015
:1012B40000000020E00000200200002003000020C5
:1012C400790000207A0000208300002082000020A2
:1012D4000421794801F085FF01224FF48071774899
:1012E40001F066FF4FF40071734801F049FF0346B3
:1012F400002B10D1724B1B78002B0CD00022102134
:10130400704801F055FF012240216E4801F050FF62
:101314006D4B21221A7204216A4801F031FF034601
:10132400002B11D1694B1B78002B0DD000224FF4F8
:101334008071644801F03CFF01228021614801F082
:1013440037FF614B21225A7302215E4801F018FFD6
:101354000346002B10D15E4B1B78002B0CD00022CF
:101364000121554801F024FF01220421524801F0D3
:101374001FFF554B21229A7408214F4801F000FFAA
:101384000346002B11D1534B1B78002B0DD00022A8
:1013940002214A4801F00CFF01224FF40071474832
:1013A40001F006FF4C4B2122DA704FF48071424861
:1013B40001F0E6FE0346002B12D1484B1B78002BAC
:1013C4000ED000224FF400613B4801F0F1FE0122EF
:1013D4004FF48061384801F0EBFE3B4B2122DA7078
:1013E4004FF47A7301223E493E4803F0D4F84FF497
:1013F4007A7301223C493B4803F0CDF84FF47A73E9
:1014040014223149374803F0C6F8642001F03AFB4E
:101414004FF47A7301223249324803F0BCF84FF496
:101424007A73012231492F4803F0B5F84FF47A73E7
:10143400142229492B4803F0AEF8642001F022FB62
:101444002B4B1A782B4B1B789A4208D32A4B1B78C8
:10145400002B04D0012201211A4801F0A9FE264BD9
:101464001B78002B7FF434AF00224FF480611248C4
:1014740001F09EFE00224021124801F099FE002254
:101484008021104801F094FE002204210A4801F052
:101494008FFE00224FF40071084801F089FE0022FB
:1014A4004FF48071054801F083FE002204210248B4
:1014B40001F07EFEFFF773B800080240000002400E
:1014C4007C00002000040240180000207D00002061
:1014D4007E0000207F0000202C0000207B000020E4
:1014E40000000020E0000020020000200300002093
:1014F400790000207A0000208300002080B594B099
:1015040000AF07F1200330220021184603F0E2FF68
:1015140007F10C0300221A605A609A60DA601A61BB
:101524000023BB60234B1B6C224A43F0805313649B
:10153400204B1B6C03F08053BB60BB6800237B60B3
:101544001D4B1B6823F440431B4A43F400431360C0
:10155400194B1B6803F440437B607B6802233B62A6
:101564000123FB6210233B630023BB6307F12003C9
:10157400184601F069FE0346002B01D001F0A6F8DD
:101584000F23FB6000233B6100237B610023BB61CD
:101594000023FB6107F10C030021184602F0CCF88C
:1015A4000346002B01D001F091F800BF5037BD462F
:1015B40080BD00BF003802400070004080B588B094
:1015C40000AF3B1D00221A605A609A60DA601A610B
:1015D4005A619A611D4B1E4A1A601C4B43F67F6286
:1015E4005A601A4B00229A60184B40F2E732DA60D4
:1015F400164B00221A61154B80229A61134802F09F
:1016040097FA0346002B01D001F060F80F4802F06E
:1016140070FB0346002B01D001F058F800237B60D7
:101624000023BB600023FB6000237B613B1D002281
:101634001946064802F0BEFC0346002B01D001F017
:1016440045F800BF2037BD4680BD00BF980000208C
:101654000044014080B500AF114B124A1A60104B90
:101664004FF4E1325A600E4B00229A600C4B002278
:10167400DA600B4B00221A61094B0C225A61084BA9
:1016840000229A61064B0022DA61054802F036FF17
:101694000346002B01D001F019F800BF80BD00BF44
:1016A400240100200044004080B500AF114B124AD1
:1016B4001A60104B4FF416525A600E4B00229A6077
:1016C4000C4B0022DA600B4B00221A61094B0C22EE
:1016D4005A61084B00229A61064B0022DA610548E0
:1016E40002F00CFF0346002B01D000F0EFFF00BF17
:1016F40080BD00BFE00000200014014080B58AB026
:1017040000AF07F1140300221A605A609A60DA608D
:101714001A6100233B616B4B1B6B6A4A43F0040361
:101724001363684B1B6B03F004033B613B690023A9
:10173400FB60644B1B6B634A43F080031363614B90
:101744001B6B03F08003FB60FB680023BB605D4BF5
:101754001B6B5C4A43F0010313635A4B1B6B03F08E
:101764000103BB60BB6800237B60564B1B6B554A6F
:1017740043F002031363534B1B6B03F002037B60C0
:101784007B68002240F635014F4801F011FD01222B
:1017940041F202014C4801F00BFD012241F64141A6
:1017A4004A4801F005FD0022A221484801F000FD4D
:1017B400002240F21111464801F0FAFC01224FF4D4
:1017C4000871434801F0F4FC41F637037B610123BF
:1017D400BB610023FB6100233B6207F1140319463C
:1017E400394801F049FB4FF442737B610023BB612C
:1017F4000223FB6107F114031946334801F03CFB53
:1018040041F6E3437B610123BB610023FB610023B9
:101814003B6207F1140319462C4801F02DFB1023F9
:101824007B610023BB610223FB6107F114031946AA
:10183400264801F021FB40F231337B610123BB6177
:101844000023FB6100233B6207F11403194620487F
:1018540001F012FB06237B610023BB610223FB61C1
:1018640007F1140319461A4801F006FB4FF47043BC
:101874007B614FF48813BB610023FB6107F1140300
:101884001946134801F0F8FA4FF480737B61022380
:10189400BB610023FB6100233B6201237B6207F1F0
:1018A40014031946094801F0E7FA00220021282010
:1018B40001F00BFA282001F024FA00BF2837BD46B6
:1018C40080BD00BF00380240000802400000024012
:1018D4000004024080B582B000AF78607B681B686A
:1018E400B94A934240F07982B84B1B7883F00103E4
:1018F400DBB2002B00F07182B54802F0CBF9B54998
:10190400B548FEF765FC0346002B08D10422B34911
:10191400B34802F0D2FEB04B00221A7062E2B14921
:10192400AD48FEF755FC0346002B08D10122AE4911
:10193400AB4802F0C2FEA84B00221A7052E2AB4937
:10194400A548FEF745FC0346002B08D10622A8490A
:10195400A34802F0B2FEA04B00221A7042E2A5494D
:101964009D48FEF735FC0346002B08D10122A2490D
:101974009B4802F0A2FE984B00221A7032E29F4963
:101984009548FEF725FC0346002B08D101229C490B
:10199400934802F092FE904B00221A7022E2994979
:1019A4008D48FEF715FC0346002B3ED1964B1B7861
:1019B400002B12D0944B00221A70944B53229A722B
:1019C400924B6522DA72914B74221A738F4B7522F3
:1019D4005A738E4B70229A7311E08B4B01221A704A
:1019E4008A4B52229A72894B7522DA72874B6E2285
:1019F4001A73864B20225A73844B20229A734FF415
:101A04007A7301228249764802F0C5FD4FF47A7355
:101A140001228049724802F0BEFD4FF47A73142209
:101A24007A496F4802F0B7FDCFE17B496A48FEF777
:101A3400CFFB0346002B3ED1784B1B78002B12D0F2
:101A4400764B00221A7000224FF40061744801F0B2
:101A5400AFFB01224FF48051714801F0A9FB714B97
:101A64004422DA7011E06D4B01221A7000224FF407
:101A740080516B4801F09CFB01224FF400616848DF
:101A840001F096FB674B4122DA704FF47A7301221E
:101A94005F49534802F07FFD4FF47A730122624993
:101AA4004F4802F078FD4FF47A7314225D494C4894
:101AB40002F071FD89E15D494748FEF789FB034661
:101AC400002B3AD15A4B1B78002B10D0584B0022D4
:101AD4001A70544B44221A7200221021554801F006
:101AE40067FB01222021534801F062FB0FE0504BB9
:101AF40001221A704B4B41221A72002220214D48B8
:101B040001F056FB012210214A4801F051FB4FF429
:101B14007A7301223E49324802F03DFD4FF47A7354
:101B2400012241492E4802F036FD4FF47A73142203
:101B34003C492B4802F02FFD47E13F492648FEF778
:101B440047FB0346002B7BD13C4B1B78002B12D068
:101B54003A4B00221A70334B44225A7300224FF43A
:101B64008071344801F024FB01224FF400713148A4
:101B740001F01EFB11E0314B01221A70294B412266
:101B84005A7300224FF400712A4801F011FB01221C
:101B94004FF48071274801F00BFB4FF47A73012254
:101BA4001B490F4802F0F7FC4FF47A7301221E49D7
:101BB4000B4802F0F0FC4FF47A73142219490848D8
:101BC40002F0E9FC01E100BF0014014083000020A1
:101BD4009800002000550008680100204000002003
:101BE400E0000020045500087A0000200855000891
:101BF400480000200C55000844000020105500083F
:101C04004500002014550008810000200400002035
:101C14000000002001000020185500087B0000206F
:101C24000008024018000020020000201C55000893
:101C34007C00002000040240205500087D000020A4
:101C44006A496B48FEF7C4FA0346002B3AD1694B44
:101C54001B78002B10D0674B00221A70664B44226D
:101C64009A7400220121654801F0A2FA012202219E
:101C7400624801F09DFA0FE05E4B01221A705E4B40
:101C840041229A74002202215D4801F091FA012256
:101C940001215B4801F08CFA4FF47A73012259490F
:101CA400594802F078FC4FF47A7301225749564898
:101CB40002F071FC4FF47A7314224F49524802F037
:101CC4006AFC82E052494A48FEF782FA0346002B36
:101CD4003AD1504B1B78002B10D04E4B00221A7077
:101CE4004D4B4422DA70002202214C4801F060FA84
:101CF40001220121494801F05BFA0FE0454B012222
:101D04001A70454B4122DA7000220121434801F048
:101D14004FFA01220221414801F04AFA4FF47A7342
:101D240001223849384802F036FC4FF47A73012214
:101D34003B49354802F02FFC4FF47A73142236499C
:101D4400314802F028FC40E036492948FEF740FAC1
:101D54000346002B39D1344B1B78002B10D0324B67
:101D640000221A702C4B44221A72002280212B4824
:101D740001F01EFA01224021284801F019FA0FE06F
:101D8400294B01221A70244B41221A72002240214D
:101D9400224801F00DFA01228021204801F008FABE
:101DA4004FF47A7301221749174802F0F4FB4FF4F9
:101DB4007A7301221A49144802F0EDFB4FF47A7346
:101DC40014221549104802F0E6FB032208490E4884
:101DD40002F073FC154801F0FBFE032204490A4893
:101DE40002F06BFC0837BD4680BD00BF24550008D7
:101DF400680100207E000020180000200008024036
:101E04000004024000000020E00000200200002046
:101E1400285500087F0000202C000020000002400C
:101E2400030000202C5500088000002098000020AA
:101E340080B582B000AF0346FB80282000F06FFF1E
:101E4400FB88B3F5805F61D100224FF400619548AF
:101E540001F0AEF900224FF48051924801F0A8F944
:101E64004FF48051904801F08BF90346002B0BD0BE
:101E74008E4B1B781A468E4B312199548B4B1B7811
:101E84000133DAB2894B1A7000224FF4806185481D
:101E940001F08EF901224FF40061824801F088F9C3
:101EA4004FF48051804801F06BF90346002B0BD0AE
:101EB4007E4B1B781A467E4B322199547B4B1B7800
:101EC4000133DAB2794B1A7000224FF4006175487D
:101ED40001F06EF901224FF48051724801F068F963
:101EE4004FF48051704801F04BF90346002B00F089
:101EF40045816E4B1B781A466D4B332199546B4BBD
:101F04001B780133DAB2694B1A7037E1FB88B3F5F9
:101F1400005F61D100224FF40061624801F048F98A
:101F240000224FF480515F4801F042F94FF4005110
:101F34005D4801F025F90346002B0BD05B4B1B7861
:101F44001A465B4B34219954584B1B780133DAB24F
:101F5400564B1A7000224FF48061524801F028F960
:101F640001224FF400614F4801F022F94FF400516F
:101F74004D4801F005F90346002B0BD04B4B1B7861
:101F84001A464B4B35219954484B1B780133DAB22E
:101F9400464B1A7000224FF40061424801F008F9E0
:101FA40001224FF480513F4801F002F94FF40051EF
:101FB4003D4801F0E5F80346002B00F0DF803B4B81
:101FC4001B781A463A4B36219954384B1B78013307
:101FD400DAB2364B1A70D1E0FB88B3F5804F69D181
:101FE40000224FF400612F4801F0E2F800224FF480
:101FF40080512C4801F0DCF84FF480412A4801F06C
:10200400BFF80346002B0BD0284B1B781A46284BED
:1020140037219954254B1B780133DAB2234B1A70BC
:1020240000224FF480611F4801F0C2F801224FF4EE
:1020340000611C4801F0BCF84FF480411A4801F0DB
:102044009FF80346002B0BD0184B1B781A46184BED
:1020540038219954154B1B780133DAB2134B1A709B
:1020640000224FF400610F4801F0A2F801224FF45E
:1020740080510C4801F09CF84FF480410A4801F06B
:102084007FF80346002B79D0084B1B781A46084B7F
:1020940039219954054B1B780133DAB2034B1A707A
:1020A4006CE000BF00000240000402407800002001
:1020B4006C010020FB88B3F5004F5FD100224FF480
:1020C40000619B4801F074F800224FF48051984855
:1020D40001F06EF84FF40041964801F051F80346C0
:1020E400002B0BD0944B1B781A46944B2A219954FD
:1020F400914B1B780133DAB28F4B1A7000224FF4E4
:1021040080618B4801F054F801224FF40061884843
:1021140001F04EF84FF40041864801F031F80346CF
:10212400002B0BD0844B1B781A46844B30219954D6
:10213400814B1B780133DAB27F4B1A7000224FF4C3
:1021440000617B4801F034F801224FF48051784853
:1021540001F02EF84FF40041764801F011F80346DF
:10216400002B0BD0744B1B781A46744B23219954C3
:10217400714B1B780133DAB26F4B1A7001224FF4A2
:1021840080616B4801F014F801224FF40061684843
:1021940001F00EF801224FF48051654801F008F86F
:1021A400654B1B78042B40F08481654B1A78634B94
:1021B4001B789A4240F07A81614B5A785F4B5B7886
:1021C4009A4240F073815E4B9A785C4B9B789A42BA
:1021D40040F06C815A4BDA78584BDB789A4240F0E5
:1021E4006581584B1B78002B04D1574B1B78002B6F
:1021F40000F0C880534B00221A70534B00221A700F
:10220400524B01221A70524B4422DA70504B442232
:102214001A724F4B44225A734D4B44229A744D4BBD
:102224004422DA704B4B44221A724B4B00221A7030
:102234004A4B00221A704A4B00221A70494B002262
:102244001A70494B00221A70484B00221A7001225E
:102254004FF48051464800F0ABFF0122202135485D
:1022640000F0A6FF01224FF40071324800F0A0FFF5
:10227400012202213E4800F09BFF012201212C484B
:1022840000F096FF01224021294800F091FF00222E
:102294004FF40061364800F08BFF002210212548DE
:1022A40000F086FF00224FF48071224800F080FF86
:1022B400002201212E4800F07BFF002202211C484D
:1022C40000F076FF00228021194800F071FF0022FF
:1022D4000121184800F06CFF4FF47A73012225495C
:1022E400254802F058F94FF47A7301222349224811
:1022F40002F051F94FF47A73142215491E4802F082
:102304004AF94FF47A7301221A491B4802F043F93F
:102314004FF47A7301221A49174802F03CF94FF43A
:102324007A7314220B49144802F035F9BEE000BF59
:102334000000024000040240780000206C010020EC
:102344004000002082000020830000204E00002076
:10235400180000202C0000207B0000207C000020BE
:102364007D0000207E0000207F00002080000020EF
:102374000008024000000020E000002002000020CD
:10238400030000205F4B01221A705F4B00221A7079
:102394005E4B4122DA705D4B41221A725B4B412243
:1023A4005A735A4B41229A74594B4122DA70584B52
:1023B40041221A72574B01221A70574B01221A708C
:1023C400564B01221A70564B01221A70554B0122AA
:1023D4001A70554B01221A7001224FF400615348C0
:1023E40000F0E6FE01221021514800F0E1FE012236
:1023F4004FF480714E4800F0DBFE012201214B486E
:1024040000F0D6FE012202214A4800F0D1FE01224A
:102414008021484800F0CCFE00224FF4805143480C
:1024240000F0C6FE00222021414800F0C1FE002237
:102434004FF400713E4800F0BBFE002202213B48ED
:1024440000F0B6FE002201213A4800F0B1FE00225D
:102454004021384800F0ACFE4FF47A73012236492B
:10246400364802F098F84FF47A730122344933481D
:1024740002F091F84FF47A73142224492F4802F0A1
:102484008AF84FF47A7301222B492C4802F083F81E
:102494004FF47A7301222B49284802F07CF84FF458
:1024A4007A7314221A49254802F075F8264B002243
:1024B4001A7000BF4FF480511D4800F061FE0346BE
:1024C400002BF7D14FF40051194800F059FE034690
:1024D400002BEFD14FF48041154800F051FE034624
:1024E400002BE7D14FF40041114800F049FE0346A8
:1024F400002BDFD1282000F004FC00BF0837BD46C4
:1025040080BD00BF820000204E0000201800002083
:102514002C0000207B0000207C0000207D00002097
:102524007E0000207F000020800000200008024080
:10253400000402400000024000000020E0000020EF
:1025440002000020030000207800002080B582B043
:1025540000AF78607B681B68544A934240F0A280C5
:10256400534B5B79382B06D8514B5B790133DAB284
:102574004F4B5A715FE04E4B1B79342B09D84C4BAF
:102584001B790133DAB24A4B1A71494B30225A7122
:1025940051E0474BDB78382B09D8454BDB780133C6
:1025A400DAB2434BDA70424B30221A7143E0404BAB
:1025B4009B78342B09D83E4B9B780133DAB23C4BE1
:1025C4009A703B4B3022DA7035E0394B5B78332B11
:1025D40016D1374B1B78322B12D1354B30221A705F
:1025E400334B30225A70324B30229A70304B3022A7
:1025F400DA702F4B30221A712D4B30225A711AE0A7
:102604002B4B5B78382B09D8294B5B780133DAB232
:10261400274B5A70264B30229A700CE0244B1B78BF
:10262400312B08D8224B1B780133DAB2204B1A70B5
:102634001F4B30225A701E4B1A781E4B1A701C4BBB
:102644005A781C4B5A701A4B9A781A4BDA70184BFA
:10265400DA78184B1A71164B1A79164B9A71144B77
:102664005A79144BDA714FF47A73012212491348E0
:1026740001F091FF4FF47A73012211490F4801F0E0
:102684008AFF4FF47A7314220A490C4801F083FF3D
:102694000C4B1B78002B05D00B4B1B780133DAB2A3
:1026A400094B1A7000BF0837BD4680BD0044014085
:1026B400480000200400002000000020E00000206A
:1026C40001000020830000207900002080B400AFC6
:1026D40072B600BFFEE7000080B582B000AF0023F1
:1026E4007B60104B5B6C0F4A43F4804353640D4B87
:1026F4005B6C03F480437B607B6800233B60094B85
:102704001B6C084A43F080531364064B1B6C03F0A4
:1027140080533B603B68072000F0CCFA00BF0837C9
:10272400BD4680BD0038024080B584B000AF7860FB
:102734007B681B680E4A934215D10023FB600D4B46
:102744005B6C0C4A43F4003353640A4B5B6C03F434
:102754000033FB60FB6800220021192000F0B5FA69
:10276400192000F0CEFA00BF1037BD4680BD00BF6F
:10277400004401400038024080B58CB000AF78605E
:1027840007F11C0300221A605A609A60DA601A6129
:102794007B681B68364A93422CD10023BB61354BBE
:1027A4001B6C344A43F400331364324B1B6C03F444
:1027B4000033BB61BB6900237B612E4B1B6B2D4A2D
:1027C40043F0010313632B4B1B6B03F001037B6189
:1027D4007B690C23FB6102233B6200237B620023A1
:1027E400BB620723FB6207F11C031946224800F071
:1027F40043FB38E07B681B68204A934233D10023B3
:102804003B611C4B5B6C1B4A43F020035364194B24
:102814005B6C03F020033B613B690023FB60154BB9
:102824001B6B144A43F004031363124B1B6B03F03A
:102834000403FB60FB68C023FB6102233B620023AB
:102844007B620323BB620823FB6207F11C03194666
:102854000B4800F011FB00220021472000F035FA5C
:10286400472000F04EFA00BF3037BD4680BD00BFA0
:1028740000440040003802400000024000140140BF
:102884000008024080B400AFFEE780B400AFFEE76A
:1028940080B400AFFEE780B400AFFEE780B400AFC1
:1028A400FEE780B400AF00BFBD465DF8047B70470F
:1028B40080B400AF00BFBD465DF8047B704780B4B0
:1028C40000AF00BFBD465DF8047B704780B500AF24
:1028D40000F0B8F800BF80BD80B500AF024801F039
:1028E40061FA00BF80BD00BF9800002080B500AF32
:1028F4004FF4805000F090FC4FF4005000F08CFC3A
:102904004FF4804000F088FC4FF4004000F084FC59
:1029140000BF80BD80B500AF024801F0FFFE00BFDC
:1029240080BD00BFE000002080B400AF064BD3F8A8
:102934008830054A43F47003C2F8883000BFBD46AE
:102944005DF8047B704700BF00ED00E0DFF834D091
:102954000D480E490E4A002302E0D458C4500433F3
:10296400C4188C42F9D30B4A0B4C002301E01360CA
:102974000432A242FBD3FFF7D7FF02F087FDFDF735
:10298400ADFD704700800120000000205C000020A5
:10299400585500085C00002074010020FEE7000088
:1029A40080B500AF0E4B1B680D4A43F400731360EF
:1029B4000B4B1B680A4A43F480631360084B1B6883
:1029C400074A43F480731360032000F073F9002076
:1029D40000F008F8FFF780FE0023184680BD00BF12
:1029E400003C024080B582B000AF7860124B1A6898
:1029F400124B1B7819464FF47A73B3FBF1F3B2FB15
:102A0400F3F3184600F099F90346002B01D0012393
:102A14000EE07B680F2B0AD8002279684FF0FF3054
:102A240000F053F9064A7B681360002300E0012399
:102A340018460837BD4680BD5000002058000020CD
:102A44005400002080B400AF064B1B781A46064B96
:102A54001B681344044A136000BFBD465DF8047B41
:102A6400704700BF580000207001002080B400AF00
:102A7400034B1B681846BD465DF8047B704700BFD6
:102A84007001002080B584B000AF7860FFF7EEFFDE
:102A9400B8607B68FB60FB68B3F1FF3F05D00A4B6D
:102AA4001B781A46FB681344FB6000BFFFF7DEFF88
:102AB4000246BB68D31AFA689A42F7D800BF00BF2F
:102AC4001037BD4680BD00BF5800002080B485B0DB
:102AD40000AF78607B6803F00703FB600C4BDB6896
:102AE400BB60BA684FF6FF031340BB60FB681A0271
:102AF400BB68134343F0BF6343F40033BB60044A31
:102B0400BB68D36000BF1437BD465DF8047B7047D3
:102B140000ED00E080B400AF044BDB681B0A03F057
:102B240007031846BD465DF8047B704700ED00E0DE
:102B340080B483B000AF0346FB7197F90730002BD4
:102B44000BDBFB7903F01F02074997F907305B0998
:102B5400012000FA02F241F8232000BF0C37BD46E1
:102B64005DF8047B704700BF00E100E080B483B0EF
:102B740000AF0346FB7197F90730002B12DBFB799A
:102B840003F01F020A4997F907305B09012000FA94
:102B940002F2203341F82320BFF34F8F00BFBFF36D
:102BA4006F8F00BF00BF0C37BD465DF8047B7047D4
:102BB40000E100E080B483B000AF03463960FB71EC
:102BC40097F90730002B0ADB3B68DAB20C4997F916
:102BD40007301201D2B20B4483F800230AE03B68A9
:102BE400DAB20849FB7903F00F03043B1201D2B2B5
:102BF4000B441A7600BF0C37BD465DF8047B704762
:102C040000E100E000ED00E080B489B000AFF860BE
:102C1400B9607A60FB6803F00703FB61FB69C3F1E9
:102C24000703042B28BF0423BB61FB690433062B71
:102C340002D9FB69033B00E000237B614FF0FF32C4
:102C4400BB6902FA03F3DA43BB681A407B699A4012
:102C54004FF0FF317B6901FA03F3D9437B680B40E2
:102C6400134318462437BD465DF8047B70470000C3
:102C740080B582B000AF78607B68013BB3F1807FA0
:102C840001D301230FE00A4A7B68013B53600F2103
:102C94004FF0FF30FFF78EFF054B00229A60044B84
:102CA40007221A60002318460837BD4680BD00BFBE
:102CB40010E000E080B582B000AF78607868FFF77C
:102CC40005FF00BF0837BD4680BD80B586B000AFA4
:102CD4000346B9607A60FB7300237B61FFF71AFF38
:102CE40078617A68B9687869FFF78EFF024697F9C8
:102CF4000F3011461846FFF75DFF00BF1837BD4679
:102D040080BD80B582B000AF0346FB7197F90730F0
:102D14001846FFF70DFF00BF0837BD4680BD80B5DC
:102D240082B000AF0346FB7197F907301846FFF7EE
:102D34001DFF00BF0837BD4680BD80B582B000AF1F
:102D440078607868FFF794FF034618460837BD4655
:102D540080BD80B584B000AF78607B689B6DFB60FC
:102D6400FFF784FEB8607B6893F83530DBB2022B42
:102D740008D07B6880225A657B68002283F834205F
:102D8400012352E07B681B681A687B681B6822F089
:102D940016021A607B681B685A697B681B6822F0FC
:102DA40080025A617B681B6C002B03D17B689B6C8F
:102DB400002B07D07B681B681A687B681B6822F0AD
:102DC40008021A607B681B681A687B681B6822F01B
:102DD40001021A6013E0FFF749FE0246BB68D31AEA
:102DE400052B0CD97B6820225A657B68032283F863
:102DF40035207B68002283F83420032315E07B68A8
:102E04001B681B6803F00103002BE4D17B68DB6DB6
:102E14003F229A40FB689A607B68012283F8352040
:102E24007B68002283F83420002318461037BD46FF
:102E340080BD80B483B000AF78607B6893F8353090
:102E4400DBB2022B04D07B6880225A6501230CE09C
:102E54007B68052283F835207B681B681A687B68C9
:102E64001B6822F001021A60002318460C37BD4685
:102E74005DF8047B7047000080B489B000AF7860CF
:102E8400396000237B6100233B610023BB61002385
:102E9400FB6159E10122FB6902FA03F37B613B68A0
:102EA4001B687A6913403B613A697B699A4240F036
:102EB40048813B685B6803F00303012B05D03B6842
:102EC4005B6803F00303022B30D17B689B68BB6112
:102ED400FB695B00032202FA03F3DB43BA69134084
:102EE400BB613B68DA68FB695B0002FA03F3BA6909
:102EF4001343BB617B68BA699A607B685B68BB619A
:102F04000122FB6902FA03F3DB43BA691340BB6194
:102F14003B685B681B0903F00102FB6902FA03F3D7
:102F2400BA691343BB617B68BA695A603B685B68E2
:102F340003F00303032B17D07B68DB68BB61FB69D9
:102F44005B00032202FA03F3DB43BA691340BB615B
:102F54003B689A68FB695B0002FA03F3BA6913439E
:102F6400BB617B68BA69DA603B685B6803F00303A2
:102F7400022B23D1FB69DA087B68083253F822302C
:102F8400BB61FB6903F007039B000F2202FA03F302
:102F9400DB43BA691340BB613B681A69FB6903F000
:102FA40007039B0002FA03F3BA691343BB61FB698D
:102FB400DA087B680832B96943F822107B681B6819
:102FC400BB61FB695B00032202FA03F3DB43BA69CA
:102FD4001340BB613B685B6803F00302FB695B0061
:102FE40002FA03F3BA691343BB617B68BA691A60D6
:102FF4003B685B6803F44033002B00F0A28000239D
:10300400FB60574B5B6C564A43F480435364544B08
:103014005B6C03F48043FB60FB68524AFB699B08CA
:10302400023352F82330BB61FB6903F003039B00B6
:103034000F2202FA03F3DB43BA691340BB617B68D6
:10304400494A934219D07B68484A934213D07B681B
:10305400474A93420DD07B68464A934207D07B6827
:10306400454A934201D1042308E0072306E00323E1
:1030740004E0022302E0012300E00023FA6902F0E5
:10308400030292009340BA691343BB613549FB695B
:103094009B080233BA6941F82320384B1B68BB6193
:1030A4003B69DB43BA691340BB613B685B6803F46B
:1030B4008033002B03D0BA693B691343BB612F4AA9
:1030C400BB6913602D4B5B68BB613B69DB43BA6929
:1030D4001340BB613B685B6803F40033002B03D0EF
:1030E400BA693B691343BB61244ABB695360234BF0
:1030F4009B68BB613B69DB43BA691340BB613B68B6
:103104005B6803F48013002B03D0BA693B69134353
:10311400BB611A4ABB699360184BDB68BB613B69AE
:10312400DB43BA691340BB613B685B6803F400137B
:10313400002B03D0BA693B691343BB610F4ABB69D7
:10314400D360FB690133FB61FB690F2B7FF6A2AEF1
:1031540000BF00BF2437BD465DF8047B704700BF45
:1031640000380240003801400000024000040240E0
:1031740000080240000C024000100240003C0140E4
:1031840080B485B000AF78600B467B807B681A6999
:103194007B881340002B02D00123FB7301E0002342
:1031A400FB73FB7B18461437BD465DF8047B704700
:1031B40080B483B000AF78600B467B8013467B708D
:1031C4007B78002B03D07A887B689A6103E07B8844
:1031D4001A047B689A6100BF0C37BD465DF8047B16
:1031E400704780B485B000AF78600B467B807B6805
:1031F4005B69FB607A88FB6813401A04FB68D94357
:103204007B880B401A437B689A6100BF1437BD4624
:103214005DF8047B7047000080B582B000AF0346C0
:10322400FB80084B5A69FB881340002B06D0054AE3
:10323400FB885361FB881846FEF7FAFD00BF083788
:10324400BD4680BD003C014080B586B000AF7860CB
:103254007B68002B01D1012364E27B681B6803F0C7
:103264000103002B75D0A34B9B6803F00C03042BC4
:103274000CD0A04B9B6803F00C03082B12D19D4B80
:103284005B6803F48003B3F5800F0BD1994B1B6883
:1032940003F40033002B5BD07B685B68002B57D1B1
:1032A40001233FE27B685B68B3F5803F06D1914B15
:1032B4001B68904A43F4803313601DE07B685B68AD
:1032C400B3F5A02F0CD18B4B1B688A4A43F480239F
:1032D4001360884B1B68874A43F4803313600BE008
:1032E400844B1B68834A23F480331360814B1B682F
:1032F400804A23F4802313607B685B68002B13D01F
:10330400FFF7B4FB386108E0FFF7B0FB02463B6906
:10331400D31A642B01D9032304E2764B1B6803F40C
:103324000033002BF0D014E0FFF7A0FB386108E075
:10333400FFF79CFB02463B69D31A642B01D9032394
:10334400F0E16C4B1B6803F40033002BF0D100E078
:1033540000BF7B681B6803F00203002B63D0654B3E
:103364009B6803F00C03002B0BD0624B9B6803F0AB
:103374000C03082B1CD15F4B5B6803F48003002B08
:1033840016D15C4B1B6803F00203002B05D07B684D
:10339400DB68012B01D00123C4E1564B1B6823F0E9
:1033A400F8027B681B69DB00524913430B603AE067
:1033B4007B68DB68002B20D04F4B01221A60FFF79B
:1033C40055FB386108E0FFF751FB02463B69D31A0D
:1033D400022B01D90323A5E1464B1B6803F002032A
:1033E400002BF0D0434B1B6823F0F8027B681B6969
:1033F400DB00404913430B6015E03F4B00221A6089
:10340400FFF734FB386108E0FFF730FB02463B6905
:10341400D31A022B01D9032384E1364B1B6803F032
:103424000203002BF0D17B681B6803F00803002B18
:1034340030D07B685B69002B16D0304B01221A60B8
:10344400FFF714FB386108E0FFF710FB02463B6905
:10345400D31A022B01D9032364E1264B5B6F03F0DB
:103464000203002BF0D015E0244B00221A60FFF772
:10347400FDFA386108E0FFF7F9FA02463B69D31A0E
:10348400022B01D903234DE11A4B5B6F03F00203B6
:10349400002BF0D17B681B6803F00403002B00F0C1
:1034A400A0800023FB75134B1B6C03F08053002B8F
:1034B4000FD10023BB600F4B1B6C0E4A43F08053AB
:1034C40013640C4B1B6C03F08053BB60BB6801237B
:1034D400FB750B4B1B6803F48073002B21D1084B45
:1034E4001B68074A43F480731360FFF7BFFA38611F
:1034F40011E000BF0038024000004742800E4742FE
:1035040000700040FFF7B2FA02463B69D31A022B5F
:1035140001D9032306E1854B1B6803F48073002B58
:10352400F0D07B689B68012B06D1814B1B6F804ACE
:1035340043F0010313671CE07B689B68052B0CD1E7
:103544007B4B1B6F7A4A43F004031367784B1B6F62
:10355400774A43F0010313670BE0754B1B6F744A02
:1035640023F001031367724B1B6F714A23F00403AA
:1035740013677B689B68002B15D0FFF777FA3861D7
:103584000AE0FFF773FA02463B69D31A41F2883224
:10359400934201D90323C5E0654B1B6F03F002037B
:1035A400002BEED014E0FFF761FA38610AE0FFF770
:1035B4005DFA02463B69D31A41F28832934201D93B
:1035C4000323AFE05A4B1B6F03F00203002BEED131
:1035D400FB7D012B05D1564B1B6C554A23F08053C0
:1035E40013647B689B69002B00F09B80504B9B68A5
:1035F40003F00C03082B5CD07B689B69022B41D140
:103604004C4B00221A60FFF731FA386108E0FFF7EB
:103614002DFA02463B69D31A022B01D9032381E018
:10362400434B1B6803F00073002BF0D17B68DA690D
:103634007B681B6A1A437B685B6A9B011A437B683D
:103644009B6A5B08013B1B041A437B68DB6A1B060D
:10365400374913434B60374B01221A60FFF706FAD0
:10366400386108E0FFF702FA02463B69D31A022BDD
:1036740001D9032356E02E4B1B6803F00073002B83
:10368400F0D04EE02B4B00221A60FFF7EFF93861BF
:1036940008E0FFF7EBF902463B69D31A022B01D984
:1036A40003233FE0224B1B6803F00073002BF0D18F
:1036B40037E07B689B69012B01D1012332E01C4B6D
:1036C4005B68FB607B689B69012B28D0FB6803F473
:1036D40080027B68DB699A4221D1FB6803F03F02D8
:1036E4007B681B6A9A421AD1FA6847F6C073134082
:1036F4007A68526A9201934211D1FB6803F4403212
:103704007B689B6A5B08013B1B049A4207D1FB68F8
:1037140003F070627B68DB6A1B069A4201D00123C6
:1037240000E0002318461837BD4680BD00700040F5
:10373400003802406000474280B584B000AF786032
:1037440039607B68002B01D10123CCE0684B1B68F6
:1037540003F007033A689A420CD9654B3A68D2B22F
:103764001A70634B1B6803F007033A689A4201D04E
:103774000123B8E07B681B6803F00203002B20D010
:103784007B681B6803F00403002B05D0594B9B682E
:10379400584A43F4E05393607B681B6803F00803C2
:1037A400002B05D0534B9B68524A43F4604393600B
:1037B400504B9B6823F0F0027B689B684D49134390
:1037C4008B607B681B6803F00103002B44D07B688B
:1037D4005B68012B07D1474B1B6803F40033002BB4
:1037E40019D101237FE07B685B68022B03D07B68DF
:1037F4005B68032B07D13F4B1B6803F00073002B5E
:1038040009D101236FE03B4B1B6803F00203002B3B
:1038140001D1012367E0374B9B6823F003027B68E7
:103824005B68344913438B60FFF720F9F8600AE0C2
:10383400FFF71CF90246FB68D31A41F2883293421F
:1038440001D903234FE02B4B9B6803F00C027B68E8
:103854005B689B009A42EBD1254B1B6803F007037E
:103864003A689A420CD2224B3A68D2B21A70204B70
:103874001B6803F007033A689A4201D0012332E03F
:103884007B681B6803F00403002B08D0194B9B686A
:1038940023F4E0527B68DB68164913438B607B6832
:1038A4001B6803F00803002B09D0124B9B6823F418
:1038B40060427B681B69DB000E4913438B6000F098
:1038C40021F802460B4B9B681B0903F00F030A49BE
:1038D400CB5C22FA03F3094A1360094B1B681846B0
:1038E400FFF780F8002318461037BD4680BD00BF9F
:1038F400003C0240003802403055000850000020CF
:10390400540000202DE9B04384B000AF00237B6055
:103914000023FB6000233B600023BB60674B9B6874
:1039240003F00C03082B0DD0082B00F2BD80002BF4
:1039340002D0042B03D0B7E0614BBB60B7E0614B0E
:10394400BB60B4E05D4B5B6803F03F037B605B4BA3
:103954005B6803F48003002B4DD0584B5B689B09D4
:103964001A464FF0000340F2FF104FF0000102EA44
:10397400000803EA0109404649464FF000024FF0AF
:1039840000034B0143EAD063420110461946B0EBF1
:10399400080061EB09014FF000024FF000038B01B6
:1039A40043EA90638201121A63EB01034FF00000B3
:1039B4004FF00001D90041EA5271D00002460B4693
:1039C40012EB080243EB09034FF000004FF0000133
:1039D400590241EAD251500202460B46104619469A
:1039E4007B681A464FF00003FCF7FCFB02460B46CB
:1039F4001346FB604AE0314B5B689B091A464FF063
:103A0400000340F2FF104FF0000102EA000403EA51
:103A14000105204629464FF000024FF000034B01F8
:103A240043EAD063420110461946001B61EB0501CD
:103A34004FF000024FF000038B0143EA90638201D0
:103A4400121A63EB01034FF000004FF00001D9009C
:103A540041EA5271D00002460B46121945EB0303AA
:103A64004FF000004FF00001990241EA9251900298
:103A740002460B46104619467B681A464FF000036F
:103A8400FCF7B0FB02460B461346FB600B4B5B682E
:103A94001B0C03F0030301335B003B60FA683B68D3
:103AA400B2FBF3F3BB6002E0054BBB6000BFBB6835
:103AB40018461037BD46BDE8B08300BF0038024049
:103AC4000024F40000127A0080B400AF034B1B689A
:103AD4001846BD465DF8047B704700BF50000020C7
:103AE40080B500AFFFF7F0FF0246054B9B689B0AC9
:103AF40003F007030349CB5C22FA03F3184680BDA5
:103B0400003802404055000880B500AFFFF7DCFFE5
:103B14000246054B9B685B0B03F007030349CB5C30
:103B240022FA03F3184680BD0038024040550008CD
:103B340080B582B000AF78607B68002B01D101238F
:103B440041E07B6893F83D30DBB2002B06D17B6803
:103B5400002283F83C207868FEF7E6FD7B680222A9
:103B640083F83D207B681A687B6804331946104645
:103B740000F0A4FA7B68012283F846207B680122C6
:103B840083F83E207B68012283F83F207B68012272
:103B940083F840207B68012283F841207B6801225E
:103BA40083F842207B68012283F843207B6801224A
:103BB40083F844207B68012283F845207B68012236
:103BC40083F83D20002318460837BD4680BD000019
:103BD40080B485B000AF78607B6893F83D30DBB289
:103BE400012B01D0012344E07B68022283F83D20AD
:103BF4007B681B68DA687B681B6842F00102DA6044
:103C04007B681B681E4A934218D07B681B68B3F11B
:103C1400804F13D07B681B681A4A93420ED07B688E
:103C24001B68194A934209D07B681B68174A934260
:103C340004D07B681B68164A934211D17B681B68C9
:103C44009B6803F00703FB60FB68062B10D07B68BE
:103C54001B681A687B681B6842F001021A6007E05F
:103C64007B681B681A687B681B6842F001021A6053
:103C7400002318461437BD465DF8047B704700BF27
:103C8400000001400004004000080040000C004017
:103C94000040014080B483B000AF78607B681B684B
:103CA400DA687B681B6822F00102DA607B681B68B3
:103CB4001A6A41F211131340002B0FD17B681B6861
:103CC4001A6A40F244431340002B07D17B681B68F7
:103CD4001A687B681B6822F001021A607B68012263
:103CE40083F83D20002318460C37BD465DF8047B5D
:103CF400704780B582B000AF78607B68002B01D13B
:103D0400012341E07B6893F83D30DBB2002B06D100
:103D14007B68002283F83C20786800F039F87B68DF
:103D2400022283F83D207B681A687B6804331946B5
:103D3400104600F0C3F97B68012283F846207B68B3
:103D4400012283F83E207B68012283F83F207B68B0
:103D5400012283F840207B68012283F841207B689C
:103D6400012283F842207B68012283F843207B6888
:103D7400012283F844207B68012283F845207B6874
:103D8400012283F83D20002318460837BD4680BD34
:103D940080B483B000AF786000BF0C37BD465DF8D7
:103DA400047B704780B582B000AF78607B681B6885
:103DB4001B6903F00203022B22D17B681B68DB68BA
:103DC40003F00203022B1BD17B681B686FF0020215
:103DD4001A617B6801221A777B681B689B6903F070
:103DE4000303002B03D0786800F04AF905E07868F3
:103DF40000F03CF9786800F04DF97B6800221A77EE
:103E04007B681B681B6903F00403042B22D17B68C5
:103E14001B68DB6803F00403042B1BD17B681B685D
:103E24006FF004021A617B6802221A777B681B68B0
:103E34009B6903F44073002B03D0786800F020F9E9
:103E440005E0786800F012F9786800F023F97B68DF
:103E540000221A777B681B681B6903F00803082B90
:103E640022D17B681B68DB6803F00803082B1BD195
:103E74007B681B686FF008021A617B6804221A775A
:103E84007B681B68DB6903F00303002B03D07868AD
:103E940000F0F6F805E0786800F0E8F8786800F0DB
:103EA400F9F87B6800221A777B681B681B6903F0AA
:103EB4001003102B22D17B681B68DB6803F010030E
:103EC400102B1BD17B681B686FF010021A617B6892
:103ED40008221A777B681B68DB6903F44073002BA4
:103EE40003D0786800F0CCF805E0786800F0BEF8FC
:103EF400786800F0CFF87B6800221A777B681B682B
:103F04001B6903F00103012B0ED17B681B68DB687E
:103F140003F00103012B07D17B681B686FF00102DA
:103F24001A617868FEF712FB7B681B681B6903F053
:103F34008003802B0ED17B681B68DB6803F0800351
:103F4400802B07D17B681B686FF080021A61786848
:103F540000F0CAFA7B681B681B6903F04003402B1E
:103F64000ED17B681B68DB6803F04003402B07D14C
:103F74007B681B686FF040021A61786800F094F85F
:103F84007B681B681B6903F02003202B0ED17B6820
:103F94001B68DB6803F02003202B07D17B681B68B8
:103FA4006FF020021A61786800F094FA00BF0837B5
:103FB400BD4680BD80B586B000AFF860B9607A6058
:103FC4000023FB75FB6893F83C30012B01D10223DD
:103FD40048E0FB68012283F83C207B680C2B39D82D
:103FE40001A252F823F000BF214000085940000804
:103FF40059400008594000082F4000085940000863
:1040040059400008594000083D4000085940000844
:1040140059400008594000084B400008FB681B68E1
:10402400B968184600F0CAF817E0FB681B68B9685D
:10403400184600F029F910E0FB681B68B9681846B7
:1040440000F08EF909E0FB681B68B968184600F0B7
:10405400F1F902E00123FB7500BFFB68002283F83D
:104064003C20FB7D18461837BD4680BD80B483B024
:1040740000AF786000BF0C37BD465DF8047B704725
:1040840080B483B000AF786000BF0C37BD465DF8E4
:10409400047B704780B483B000AF786000BF0C37F6
:1040A400BD465DF8047B704780B483B000AF786090
:1040B40000BF0C37BD465DF8047B704780B485B003
:1040C40000AF786039607B681B68FB607B68344AAA
:1040D40093420FD07B68B3F1804F0BD07B68314A99
:1040E400934207D07B68304A934203D07B682F4ABF
:1040F400934208D1FB6823F07003FB603B685B6864
:10410400FA681343FB607B68254A93421BD07B68A3
:10411400B3F1804F17D07B68224A934213D07B6857
:10412400214A93420FD07B68204A93420BD07B688C
:104134001F4A934207D07B681E4A934203D07B6890
:104144001D4A934208D1FB6823F44073FB603B682B
:10415400DB68FA681343FB60FB6823F080023B686A
:104164005B691343FB607B68FA681A603B689A6872
:104174007B68DA623B681A687B689A627B68084AE3
:10418400934203D13B681A697B681A637B680122F6
:104194005A6100BF1437BD465DF8047B704700BF09
:1041A400000001400004004000080040000C0040F2
:1041B40000400140004401400048014080B487B001
:1041C40000AF786039607B681B6A23F001027B686A
:1041D4001A627B681B6A7B617B685B683B617B68F6
:1041E4009B69FB60FB6823F07003FB60FB6823F0B2
:1041F4000303FB603B681B68FA681343FB607B693D
:1042040023F002037B613B689B687A6913437B61FB
:104214007B681C4A93420CD17B6923F008037B61C1
:104224003B68DB687A6913437B617B6923F0040391
:104234007B617B68134A934211D13B6923F48073F9
:104244003B613B6923F400733B613B685B693A69FA
:1042540013433B613B689B693A6913433B617B6849
:104264003A695A607B68FA689A613B685A687B6865
:104274005A637B687A691A6200BF1C37BD465DF8D1
:10428400047B70470000014080B487B000AF7860C1
:1042940039607B681B6A23F010027B681A627B68B2
:1042A4001B6A7B617B685B683B617B689B69FB6025
:1042B400FB6823F4E043FB60FB6823F44073FB607A
:1042C4003B681B681B02FA681343FB607B6923F09D
:1042D40020037B613B689B681B017A6913437B6104
:1042E4007B681E4A93420DD17B6923F080037B6176
:1042F4003B68DB681B017A6913437B617B6923F0AC
:1043040040037B617B68154A934213D13B6923F4D4
:1043140080633B613B6923F400633B613B685B69F9
:104324009B003A6913433B613B689B699B003A6974
:1043340013433B617B683A695A607B68FA689A6107
:104344003B685A687B689A637B687A691A6200BF23
:104354001C37BD465DF8047B704700BF0000014078
:1043640080B487B000AF786039607B681B6A23F43F
:1043740080727B681A627B681B6A7B617B685B68FE
:104384003B617B68DB69FB60FB6823F07003FB60C7
:10439400FB6823F00303FB603B681B68FA68134364
:1043A400FB607B6923F400737B613B689B681B02A1
:1043B4007A6913437B617B681D4A93420DD17B6903
:1043C40023F400637B613B68DB681B027A69134357
:1043D4007B617B6923F480637B617B68144A93422D
:1043E40013D13B6923F480533B613B6923F40053AD
:1043F4003B613B685B691B013A6913433B613B6862
:104404009B691B013A6913433B617B683A695A60B3
:104414007B68FA68DA613B685A687B68DA637B68B0
:104424007A691A6200BF1C37BD465DF8047B704789
:104434000000014080B487B000AF786039607B68C9
:104444001B6A23F480527B681A627B681B6A3B6197
:104454007B685B687B617B68DB69FB60FB6823F4DA
:10446400E043FB60FB6823F44073FB603B681B681C
:104474001B02FA681343FB603B6923F400533B615E
:104484003B689B681B033A6913433B617B68104A92
:10449400934209D17B6923F480437B613B685B6968
:1044A4009B017A6913437B617B687A695A607B68F4
:1044B400FA68DA613B685A687B681A647B683A690F
:1044C4001A6200BF1C37BD465DF8047B704700BF0D
:1044D4000000014080B483B000AF786000BF0C37A7
:1044E400BD465DF8047B704780B483B000AF78604C
:1044F40000BF0C37BD465DF8047B704780B582B0C1
:1045040000AF78607B68002B01D101233FE07B681A
:1045140093F83D30DBB2002B06D17B68002283F890
:104524003C207868FEF728F97B68242283F83D2034
:104534007B681B68DA687B681B6822F40052DA60C7
:10454400786800F0DBFD7B681B681A697B681B6870
:1045540022F490421A617B681B685A697B681B6865
:1045640022F02A025A617B681B68DA687B681B6840
:1045740042F40052DA607B6800221A647B682022CD
:1045840083F83D207B68202283F83E2000231846D0
:104594000837BD4680BD80B58AB002AFF860B96007
:1045A4003B601346FB8000237B61FB6893F83D303E
:1045B400DBB2202B7CD1BB68002B02D0FB88002B04
:1045C40001D1012375E0FB6893F83C30012B01D144
:1045D40002236EE0FB68012283F83C20FB68002282
:1045E4001A64FB68212283F83D20FEF73FFA7861C4
:1045F400FB68FA889A84FB68FA88DA84FB689B680B
:10460400B3F5805F08D1FB681B69002B04D100233C
:10461400FB61BB68BB6103E0BB68FB610023BB615A
:10462400FB68002283F83C202AE03B6800937B6906
:1046340000228021F86800F01FFB0346002B01D004
:10464400032336E0FB69002B0BD1BB691B881A4698
:10465400FB681B68C2F308025A60BB690233BB6182
:1046640007E0FB691A78FB681B685A60FB69013331
:10467400FB61FB68DB8C9BB2013B9AB2FB68DA847A
:10468400FB68DB8C9BB2002BCFD13B6800937B692A
:1046940000224021F86800F0EFFA0346002B01D015
:1046A400032306E0FB68202283F83D20002300E07A
:1046B400022318462037BD4680BD80B584B000AFC4
:1046C400F860B9601346FB80FB6893F83E30DBB2B8
:1046D400202B1DD1BB68002B02D0FB88002B01D1FD
:1046E400012316E0FB6893F83C30012B01D102232F
:1046F4000FE0FB68012283F83C20FB6800221A6368
:10470400FB881A46B968F86800F024FB034600E009
:10471400022318461037BD4680BD000080B5BAB0EC
:1047240000AF78607B681B681B68C7F8E4307B685F
:104734001B68DB68C7F8E0307B681B685B69C7F8F7
:10474400DC300023C7F8D8300023C7F8D430D7F8BA
:10475400E43003F00F03C7F8D830D7F8D830002B73
:104764000FD1D7F8E43003F02003002B09D0D7F899
:10477400E03003F02003002B03D0786800F003FC42
:1047840056E2D7F8D830002B00F0DE80D7F8DC30C2
:1047940003F00103002B06D1D7F8E03003F4907343
:1047A400002B00F0D180D7F8E43003F00103002B94
:1047B4000BD0D7F8E03003F48073002B05D07B686E
:1047C4001B6C43F001027B681A64D7F8E43003F0F1
:1047D4000403002B0BD0D7F8DC3003F00103002BCB
:1047E40005D07B681B6C43F002027B681A64D7F81F
:1047F400E43003F00203002B0BD0D7F8DC3003F0D5
:104804000103002B05D07B681B6C43F004027B681A
:104814001A64D7F8E43003F00803002B11D0D7F85A
:10482400E03003F02003002B05D1D7F8DC3003F08F
:104834000103002B05D07B681B6C43F008027B68E6
:104844001A647B681B6C002B00F0ED81D7F8E43010
:1048540003F02003002B08D0D7F8E03003F0200346
:10486400002B02D0786800F08EFB7B681B685B69C4
:1048740003F04003402B0CBF01230023DBB2C7F835
:10488400D4307B681B6C03F00803002B03D1D7F8EA
:10489400D430002B4FD0786800F096FA7B681B6800
:1048A4005B6903F04003402B41D17B681B681433E0
:1048B400C7F89C30D7F89C3053E8003FC7F89830CD
:1048C400D7F8983023F04003C7F8D0307B681B68D2
:1048D4001433D7F8D020C7F8A820C7F8A430D7F8E5
:1048E400A410D7F8A82041E80023C7F8A030D7F8CF
:1048F400A030002BD9D17B689B6B002B13D07B6835
:104904009B6B7D4A1A657B689B6B1846FEF791FA90
:104914000346002B16D07B689B6B1B6D7A68926BE9
:10492400104698470EE0786800F090F90AE078683D
:1049340000F08CF906E0786800F088F97B680022C2
:104944001A6470E100BF6EE17B681B6B012B40F0C1
:104954004A81D7F8E43003F01003002B00F04381C0
:10496400D7F8E03003F01003002B00F03C81002363
:10497400BB607B681B681B68BB607B681B685B68EB
:10498400BB60BB687B681B685B6903F04003402B1A
:1049940040F0B4807B689B6B1B685B68A7F8BE30F3
:1049A400B7F8BE30002B00F040817B689B8DB7F8D0
:1049B400BE209A4280F039817B68B7F8BE20DA8540
:1049C4007B689B6BDB69B3F5807F00F088807B6834
:1049D4001B680C33C7F88830D7F8883053E8003F99
:1049E400C7F88430D7F8843023F48073C7F8B8301C
:1049F4007B681B680C33D7F8B820C7F89420C7F835
:104A04009030D7F89010D7F8942041E80023C7F8E5
:104A14008C30D7F88C30002BD9D17B681B681433C9
:104A24007B677B6F53E8003F3B673B6F23F00103D9
:104A3400C7F8B4307B681B681433D7F8B420C7F8C0
:104A44008020FB67F96FD7F8802041E80023BB671B
:104A5400BB6F002BE1D17B681B6814333B663B6E54
:104A640053E8003FFB65FB6D23F04003C7F8B0300B
:104A74007B681B681433D7F8B020FA66BB66B96E3E
:104A8400FA6E41E800237B667B6E002BE3D17B68E2
:104A9400202283F83E207B6800221A637B681B680F
:104AA4000C33FB64FB6C53E8003FBB64BB6C23F02A
:104AB4001003C7F8AC307B681B680C33D7F8AC2004
:104AC400BA657B65796DBA6D41E800233B653B6D42
:104AD400002BE3D17B689B6B1846FEF73AF97B68A1
:104AE4009A8D7B68DB8D9BB2D31A9BB2194678688A
:104AF40000F0B6F899E000BF934E00087B689A8DE9
:104B04007B68DB8D9BB2D31AA7F8CE307B68DB8D34
:104B14009BB2002B00F08B80B7F8CE30002B00F056
:104B240086807B681B680C33BB63BB6B53E8003F18
:104B34007B637B6B23F49073C7F8C8307B681B6876
:104B44000C33D7F8C8207A643B64396C7A6C41E83A
:104B54000023FB63FB6B002BE3D17B681B681433DE
:104B64007B627B6A53E8003F3B623B6A23F00103AC
:104B7400C7F8C4307B681B681433D7F8C4203A6381
:104B8400FB62F96A3A6B41E80023BB62BB6A002B03
:104B9400E3D17B68202283F83E207B6800221A63DD
:104BA4007B681B680C333B613B6953E8003FFB6047
:104BB400FB6823F01003C7F8C0307B681B680C3314
:104BC400D7F8C020FA61BB61B969FA6941E80023EA
:104BD4007B617B69002BE3D1B7F8CE301946786846
:104BE40000F03EF823E0D7F8E43003F08003002B14
:104BF40009D0D7F8E03003F08003002B03D07868A5
:104C040000F059F914E0D7F8E43003F04003002B26
:104C14000ED0D7F8E03003F04003002B08D07868BA
:104C240000F099F904E000BF02E000BF00E000BF1B
:104C3400E837BD4680BD00BF80B483B000AF786064
:104C440000BF0C37BD465DF8047B704780B483B069
:104C540000AF786000BF0C37BD465DF8047B704739
:104C640080B483B000AF78600B467B8000BF0C3704
:104C7400BD465DF8047B704780B590B000AFF86026
:104C8400B9603B601346FB7150E0BB6CB3F1FF3F6E
:104C94004CD0BB6C002B07D0FDF7E8FE02463B6806
:104CA400D31ABA6C9A4241D2FB681B680C33BB62BC
:104CB400BB6A53E8003F7B627B6A23F4D073FB63D7
:104CC400FB681B680C33FA6B7A633B63396B7A6B52
:104CD40041E80023FB62FB6A002BE5D1FB681B68FB
:104CE40014337B617B6953E8003F3B613B6923F0EC
:104CF4000103BB63FB681B681433BA6B3A62FB6144
:104D0400F9693A6A41E80023BB61BB69002BE5D12C
:104D1400FB68202283F83D20FB68202283F83E2094
:104D2400FB68002283F83C2003230FE0FB681B6828
:104D34001A68BB681340BA689A420CBF0123002367
:104D4400DBB21A46FB799A429FD0002318464037BB
:104D5400BD4680BD80B485B000AFF860B96013462D
:104D6400FB80FB68BA689A62FB68FA889A85FB68DC
:104D7400FA88DA85FB6800221A64FB68222283F829
:104D84003E20FB68002283F83C20FB681B68DA683D
:104D9400FB681B6842F48072DA60FB681B685A691E
:104DA400FB681B6842F001025A61FB681B68DA6801
:104DB400FB681B6842F02002DA60002318461437AF
:104DC400BD465DF8047B704780B495B000AF786051
:104DD4007B681B680C337B637B6B53E8003F3B634E
:104DE4003B6B23F49073FB647B681B680C33FA6C95
:104DF4003A64FB63F96B3A6C41E80023BB63BB6B19
:104E0400002BE5D17B681B6814333B623B6A53E893
:104E1400003FFB61FB6923F00103BB647B681B68F3
:104E24001433BA6CFA62BB62B96AFA6A41E80023C5
:104E34007B627B6A002BE5D17B681B6B012B19D14C
:104E44007B681B680C33FB60FB6853E8003FBB6066
:104E5400BB6823F010037B647B681B680C337A6C9B
:104E6400BA617B617969BA6941E800233B613B69B6
:104E7400002BE5D17B68202283F83E207B6800224A
:104E84001A6300BF5437BD465DF8047B704780B594
:104E940084B000AF78607B689B6BFB60FB6800228A
:104EA400DA85FB680022DA84F868FFF7CFFE00BFDA
:104EB4001037BD4680BD80B485B000AF78607B6894
:104EC40093F83D30DBB2212B3ED17B689B68B3F570
:104ED400805F14D17B681B69002B10D17B681B6A2F
:104EE400FB60FB681B881A467B681B68C2F30802D8
:104EF4005A607B681B6A9A1C7B681A6208E07B68AC
:104F04001B6A591C7A6811621A787B681B685A609C
:104F14007B68DB8C9BB2013B9BB27A681946D184D7
:104F2400002B0FD17B681B68DA687B681B6822F052
:104F34008002DA607B681B68DA687B681B6842F071
:104F44004002DA60002300E0022318461437BD460D
:104F54005DF8047B704780B582B000AF78607B68F1
:104F64001B68DA687B681B6822F04002DA607B68A1
:104F7400202283F83D207868FFF75EFE0023184660
:104F84000837BD4680BD80B58CB000AF78607B68C3
:104F940093F83E30DBB2222B40F0AB807B689B68F9
:104FA400B3F5805F17D17B681B69002B13D10023F5
:104FB400FB627B689B6ABB627B681B685B689BB215
:104FC400C3F308039AB2BB6A1A807B689B6A9A1C73
:104FD4007B689A6226E07B689B6AFB620023BB6263
:104FE4007B689B68B3F5805F07D07B689B68002B68
:104FF4000AD17B681B69002B06D17B681B685B6840
:10500400DAB2FB6A1A7008E07B681B685B68DBB283
:1050140003F07F03DAB2FB6A1A707B689B6A5A1C3E
:105024007B689A627B68DB8D9BB2013B9BB27A689A
:105034001946D185002B5AD17B681B68DA687B68D6
:105044001B6822F02002DA607B681B68DA687B68E0
:105054001B6822F48072DA607B681B685A697B687B
:105064001B6822F001025A617B68202283F83E20EB
:105074007B681B6B012B35D17B6800221A637B682C
:105084001B680C337B617B6953E8003F3B613B69E0
:1050940023F010037B627B681B680C337A6A3A62E4
:1050A400FB61F9693A6A41E80023BB61BB69002BE3
:1050B400E5D17B681B681B6803F01003102B0AD131
:1050C4000023FB607B681B681B68FB607B681B68B4
:1050D4005B68FB60FB687B689B8D19467868FFF70B
:1050E400BFFD02E07868FCF7F5FB002302E0002333
:1050F40000E0022318463037BD4680BD2DE9F04F4D
:105104009FB000AFF866FB6E1B681B6923F4405028
:10511400FB6ED968FB6E1A6840EA01031361FB6EEB
:105124009A68FB6E1B691A43FB6E5B691A43FB6E3C
:10513400DB6913433B67FB6E1B68DB6823F4164192
:1051440021F00C01FB6E1A683B6F0B43D360FB6EBE
:105154001B685B6923F44070FB6E9969FB6E1A68E7
:1051640040EA01035361FB6E1A68C54B9A4204D0AE
:10517400FB6E1A68C34B9A4203D1FEF7C5FC7867ED
:1051840002E0FEF7ADFC7867FB6EDB69B3F5004F18
:1051940040F0B6807B6F1C464FF0000522462B463C
:1051A400911839645B417B64D7E91023121945EBEC
:1051B40003034FF000004FF00001D90041EA52719F
:1051C400D00002460B46111939666B417B66FB6EB3
:1051D4005B681A464FF000039118B9635B41FB63A7
:1051E400D7E90E23D7E91801FAF7FCFF02460B466C
:1051F400A54BA3FB02235B091E017B6F1C464FF0EA
:10520400000522462B46911839635B417B63D7E93D
:105214000C23121945EB03034FF000004FF000017B
:10522400D90041EA5271D00002460B461119B96502
:105234006B41FB65FB6E5B681A464FF000039118E7
:10524400B9625B41FB62D7E90A23D7E91601FAF791
:10525400C9FF02460B468C4BA3FB02135B09642176
:1052640001FB03F3D31ADB003233874AA2FB032387
:105274005B095B0003F4F8731E447B6F18464FF020
:10528400000102460B4694183C625B417B62D7E9FD
:105294000823121841EB03034FF000044FF00005FC
:1052A400DD0045EA5275D40022462B4614183C65AD
:1052B4004B417B65FB6E5B681A464FF00003911807
:1052C400B9615B41FB61D7E90623D7E91401FAF719
:1052D40089FF02460B466C4BA3FB02135B09642156
:1052E40001FB03F3D31ADB003233674AA2FB032327
:1052F4005B0903F00702FB6E1B6832449A60B9E055
:105304007B6F1C464FF0000522462B4691183961ED
:105314005B417B61D7E90423121945EB03034FF08A
:1053240000004FF00001D90041EA5271D00002465A
:105334000B4612EB040843EB0509FB6E5B68184649
:105344004FF000014FF000024FF000038B0043EADE
:105354009073820040464946FAF744FF02460B46E2
:10536400494BA3FB02235B091E017B6F18464FF0D8
:10537400000102460B469418BC605B41FB60D7E910
:105384000223121841EB03034FF000044FF0000511
:10539400DD0045EA5275D40022462B461418BC643D
:1053A4004B41FB64FB6E5B6818464FF000014FF005
:1053B40000024FF000038B0043EA90738200D7E9A8
:1053C4001201FAF70FFF02460B462F4BA3FB021301
:1053D4005B09642101FB03F3D31A1B0132332A4A0C
:1053E400A2FB03235B0903F0F0031E447B6F184602
:1053F4004FF0000102460B4694183C605B417B6011
:10540400D7E90023121841EB03034FF000044FF0D7
:105414000005DD0045EA5275D40022462B4612EB06
:10542400000A43EB010BFB6E5B6818464FF000016A
:105434004FF000024FF000038B0043EA90738200A8
:1054440050465946FAF7CEFE02460B460E4BA3FBD6
:1054540002135B09642101FB03F3D31A1B013233EA
:10546400094AA2FB03235B0903F00F02FB6E1B68CE
:1054740032449A6000BF7C37BD46BDE8F08F00BF60
:1054840000100140001401401F85EB5170B50D4D13
:105494000D4C641BA4100026A64209D10B4D0C4CE4
:1054A40000F020F8641BA4100026A64205D170BDAC
:1054B40055F8043B98470136EEE755F8043B984706
:1054C4000136F2E7505500085055000850550008C1
:1054D4005455000802440346934200D1704703F830
:1054E400011BF9E7F8B500BFF8BC08BC9E4670473D
:0C54F400F8B500BFF8BC08BC9E4670472D
:105500002D7020002D6120002D7420002D662000BC
:105510002D6220002D6D74002D7731002D77320023
:105520002D7733002D7734002D6431002D64320047
:105530000000000000000000010203040607080943
:08554000000000000102030459
:08554800D0ACFF7F0100000060
:04555000B901000895
:0455540095010008B5
:10555800FE80C09430303A30303A303020205365E5
:10556800747570000000000057313A442057323AF1
:10557800442057333A442057343A440044313A449B
:105588002044323A440000000000000000000000FF
:105598003131313104040000303030303030010016
:0C55A8000024F4001000000001000000CE
:040000050800295175
:00000001FF
